:020000040800F2
:100000001804002051190008B1180008B31800089E
:10001000B5180008B7180008B9180008000000005B
:10002000000000000000000000000000BB180008F5
:10003000BD18000800000000BF180008C118000823
:1000400075190008791900087D1900088119000840
:1000500085190008891900088D19000891190008F0
:1000600095190008991900089D190008A1190008A0
:10007000A5190008A9190008AD190008B119000850
:10008000B5190008B9190008BD190008C119000800
:10009000C5190008C9190008CD190008D1190008B0
:1000A000D5190008D9190008DD190008E119000860
:1000B000E5190008E9190008ED190008F119000810
:1000C000F5190008F9190008FD190008011A0008BF
:1000D000051A0008C5180008091A00080D1A0008BA
:1000E000111A0008151A0008191A00081D1A00082C
:1000F000211A0008251A0008291A00082D1A0008DC
:10010000311A0008351A0008391A00083D1A00088B
:10011000411A0008451A0008491A00084D1A00083B
:10012000511A0008551A0008591A00085D1A0008EB
:1001300038B5040001D1012032BD04F140056878D2
:1001400008B900F005F800F011F800F020F803E01D
:100150002870204600F03DBB416100F011F8686056
:1001600020206870A8700020606332BD2420687071
:100170002068C16821F40051C160204600F0CBBA6C
:100180002068C16841F40051C160002070472068B8
:10019000016921F4904101612068416921F02A013F
:1001A00070472DE9F041044682B094F841002028C0
:1001B0000D4617461E463ED10DB1380001D1012033
:1001C0003AE000F04EF800F043FBA7848046E78455
:1001D00000F0A6F904BF206900281ABF2F460025A9
:1001E000002703E04160E08C401EE0844346E08C41
:1001F000009600280FD000228021204600F09DF9B3
:1002000078B92068002F06BF35F8021BC1F308013A
:1002100017F8011BE6E700224021204600F08DF987
:1002200020B1202084F84100032005E0202084F83C
:100230004100002000E00220BDE8F68110B500F189
:1002400030039C7C202C0AD109B1140001D101207B
:1002500010BD00241C60BDE8104000F0A6B90220CB
:1002600010BD00206064212084F8410070470168BF
:1002700001F10C0252E8002F0C3170470A6800921D
:10028000496800910099704752081431520041E8C2
:100290000023002B7047206800F1140151E8001F73
:1002A000143021F0400140E80012002A704738B5B0
:1002B000044623681968DA68586911F00F0507D1F8
:1002C000880660D590065ED52046BDE83240C7E17D
:1002D000C50702D412F4907F55D0CB0705D5D305BE
:1002E00003D5636C43F0010363644B0705D5C30773
:1002F00003D5636C43F0020363648B0705D5C30722
:1003000003D5636C43F0040363640B0707D59306BE
:1003100001D4C00703D5606C40F008006064606CD5
:1003200000282FD0880604D5900644BF204600F050
:1003300097F920684069616C090701D440061CD513
:1003400000F0F9F820684069400611D5FFF7A3FFD7
:10035000FCD1E06B60B10FF2FD214163E06B00F076
:10036000A1FA00280ED0E06B416BBDE8344008478D
:100370002046BDE8324000F023BB204600F020FBC1
:100380000020606431BD256B012D04F1410078D15E
:10039000CD0676D5D50674D5002100911968009157
:1003A0005968009100995969490634D5E16B0A688A
:1003B000526893B2002BE5D0A58DAB42E2D2E28524
:1003C0008969202921D000F0A1F822F48072FFF77A
:1003D0005EFFF8D100F094F8FFF756FFFAD100F075
:1003E0008FF8143122F04002FFF751FFF7D120219E
:1003F00041700020206300F0F9F821F0100100F0B6
:100400007BF8F8D1E06B00F029FA02206063A08D40
:10041000E18D411A2FE0A18DE28D891AE28D002A2B
:100420001CBF8AB2002A66D0226800F07EF823F44E
:10043000907342E80035002DF6D1226802F11403D2
:1004400053E8003F5B0814325B0042E80035002DA2
:10045000F3D12022427000202063206800F10C02BA
:1004600052E8002F0C3022F0100240E80023002B4D
:10047000F3D1022060632046BDE8344089B200F029
:10048000A0BA0D0628D5150626D50078212832D128
:1004900000F046F804BF2069002808D1206A0088CF
:1004A000C0F308005860206A801C206204E0206AC3
:1004B000411C216200785860E08C401EE08480B2CC
:1004C000C8B92068C16821F08001C1602068C16896
:1004D00041F04001C16031BD49060CD551060AD535
:1004E000D96821F04001D960202101702046BDE883
:1004F000324000F067BA31BD40E80012002A704770
:10050000216801F1140252E8002F7047216801F1BF
:100510000C0252E8002F0C317047A7858046E78512
:10052000A068B0F5805F7047026802F10C0353E8E1
:10053000003F0C32704720465FE02DE9F04182B069
:100540000446089E0D4690461F46206800682840D5
:10055000A8420CBF01200020404523D116F1010F15
:10056000F3D000F075F9C01B864200D30EB903200A
:1005700019E02068C1684907E7D5802D18BF402DD4
:10058000E3D001680907E0D50021009100F028F8C8
:10059000FFF7D1FF04F14000082141600021017004
:1005A000012000E00020BDE8F68181628285C285DD
:1005B00000214164222180F84210016921B10168C3
:1005C000CA6842F48072CA6001684A6942F0010256
:1005D0004A610068C16841F02001C1600020704795
:1005E000016800914068009000987047206800F111
:1005F0000C0151E8001F0C307047016801F10C023A
:1006000052E8002F0C3122F4907241E80023002BB5
:10061000F3D1016801F1140252E8002F520814319D
:10062000520041E80023002BF3D1016B01290BD1CB
:10063000016801F10C0252E8002F0C3122F0100287
:1006400041E80023002BF3D1202180F84210002143
:1006500001637047406A0021C185C18400F0B0B9D0
:1006600080B590F84210222953D18168826AB1F591
:10067000805F09D1016961B901684968C1F3080166
:100680001180816A891C0EE0002904BF01690029DC
:1006900002D10168496803E00168496801F07F01FF
:1006A0001170816A491C8162C18D491EC18589B260
:1006B00069BB0168CA6822F02002CA600168CA6882
:1006C00022F48072CA6001684A69520852004A6185
:1006D000202180F8421000214163016B012914D1CF
:1006E00000210163FFF7C3FD22F01002FFF7CFFDE9
:1006F000F8D101680A68D20603D500220092FFF7FC
:10070000BDFD818D00F05DF901E000F034FA0020BC
:1007100002BD022002BD10B5044620680169E268EE
:1007200021F4405111430161194AC1681140A26886
:1007300011432269114362691143C1604169A26991
:1007400021F44071114341611249884202D100F005
:10075000B1FC01E000F0A6FC192148436168890062
:10076000B0FBF1F06421B0FBF1F1642202FB110057
:1007700000013230B0FBF2F000F0F00202EB0111A8
:1007800000F00F0040182168886010BD00000000D4
:10079000F3E9FFFF00380140294881B0016841F0CA
:1007A00001010160016801F00101009100994168B7
:1007B00041F080514160406800F080500090009806
:1007C0002048016821F0E06141F00071016001B052
:1007D000704710B586B0044601A8102100F096FCC1
:1007E00020681949884228D11548184C016841F4FD
:1007F00080410160016801F4804100910099016825
:1008000041F00401016001A9006800F004000090BB
:1008100000984FF400700190022002900320049091
:10082000204600F077FC4FF48060019001A9002081
:1008300002900390204600F06DFC06B010BD000051
:100840001810024004000140003801400008014037
:1008500001484068704700BF0000002090F8212048
:10086000022A00F1380106D004220A60002180F833
:100870002010012070470268136823F00E031360F4
:10088000026813685B085B00136001228B6849688B
:100890009A404A60012180F82110002180F8201040
:1008A00000207047F8B590F821200024022A00F1BA
:1008B000340103D004204860012462E00268DFF8BC
:1008C000CC70136823F00E0313604FF48055026858
:1008D00013685B085B0013604FF480320368BB420F
:1008E0004FF4807619D3DFF8A070BB4208BF012215
:1008F00010D0DFF89C70BB4208BF10220AD0DFF88E
:100900009470BB4208BF324604D0DFF88C60B3421B
:1009100008BF2A46DFF8843029E0DFF88470BB4244
:100920001ED0DFF88070BB421CD0DFF87C70BB4269
:100930001AD0DFF87860B3420EBF2A46DFF8705055
:10094000AB4212D0DFF86C50AB4208BF4FF48012BC
:100950000BD0DFF86450AB4207D14FF0807204E057
:10096000012202E0102200E03246DFF850301A6027
:10097000012280F8212080F8204009680A0018BF71
:1009800088472046F2BD0000080402408100024072
:100990001C040240300402404404024004040240AB
:1009A000080002401C0002403000024044000240A7
:1009B000580002406C0002408000024004000240E7
:1009C000704770477047000038B500F091FC00F0A8
:1009D0003CF800F06DF8934C934860614FF416506A
:1009E000A0610020E061206260620C20A062002013
:1009F000E062206304F11400FFF79AFB08B172B6BD
:100A0000FEE700220021252000F09EFC252000F0BA
:100A1000B8FC864D0121284600F041FCA0B9012216
:100A20000221284600F041FC01222021804800F0EC
:100A30003CFC4FF47A7307220FF20C2104F11400EE
:100A4000FFF7AFFB00F0FAF8FEE700B58FB005A89E
:100A5000282100F05BFB6846142100F057FB0120C1
:100A60000590002107914FF48030069001210D90F0
:100A700009914FF4E01002210E900C9105A800F0AE
:100A8000EFF808B172B6FEE70F20009002210220B5
:100A90000190002002904FF48060039000200490A9
:100AA000684600F05AFA08B172B6FEE70FB000BD12
:100AB00070B586B001A8102100F028FB5D485B4CA2
:100AC00001685D4D5A4E41F020010160002201682D
:100AD00001F0200100910099016841F004010160DA
:100AE000016801F0040100910099016841F01001D2
:100AF0000160016801F0100100910099016841F066
:100B0000080101601221006800F0080000900098C0
:100B1000204600F0CAFB00222021284600F0C5FB39
:100B200000222321304600F0C0FB0120019001A9E2
:100B3000002002900390204600F0ECFA122000F012
:100B400011F8204600F0E6FA202000F00BF82846C5
:100B500000F0E0FA232000F005F8304600F0DAFA61
:100B600006B070BD019001A9012002900020039001
:100B700002200490704700682B49884200D07047DB
:100B8000F0B5284C0020E07424A597B029462046F3
:100B900000F022FC00260EE01E2272430DEB02073D
:100BA00001461D22384600F03DFC0020787729469A
:100BB00000F012FC761C08B1032EEDDB0FF2900161
:100BC000684600F065FC80B9194D0DF11E0000F07B
:100BD00080FC012101FA00F611A10FA800F058FCD9
:100BE00000280CBF0122002207E00FF26C016846CA
:100BF00000F04EFC78B9104DE7E7B1B2284600F09E
:100C000054FB1421204600F081FA5A21684600F076
:100C10007DFA00F013F817B0F0BD00002F000000BF
:100C20004F4E000018040020003801400008014029
:100C3000000C014018100240001001400A22214619
:100C400004F11400FFF7FABABCBAB0F80D0A0000BC
:100C50004750494F420000004750494F43000000B1
:100C60002DE9F843040016D02078DFF85C54C00763
:100C700013D5686800F00C00042807D0686800F0FD
:100C80000C0008283FD16868C0033CD52868800361
:100C900003D56068002800F057812078DFF83464BD
:100CA000800719D5686810F00C0F07D0686800F04D
:100CB0000C0008285AD16868C00357D428688007F8
:100CC00003D52069012840F03F812868616920F040
:100CD000F80040EAC10028602078000772D5A169B9
:100CE000DFF8F403002900F0998001210160FFF78B
:100CF000AFFD0746686A800755D4FFF7A9FDC01B02
:100D00000328F7D311E16068B0F5803F09D008B936
:100D100028680AE0B0F5A02F286806D140F48020AA
:100D20002860286840F4803005E020F48030286096
:100D3000286820F480202860606858B1FFF788FD9B
:100D4000074628688003A8D4FFF782FDC01B6528EA
:100D5000F7D3EAE0FFF77CFD0746286880039CD5BF
:100D6000FFF776FDC01B6528F7D3DEE0206968B188
:100D700001203060FFF76CFD074628688007A4D487
:100D8000FFF766FDC01B0328F7D3CEE03060FFF706
:100D90005FFD0746286880079ED5FFF759FDC01BF9
:100DA0000328F7D3C1E0DFF824030068C0084FF43C
:100DB0007A71B0FBF1F0009000BF0098411E00284E
:100DC0000091F9D1207840076FD5E869C0004FF055
:100DD00000080AD4E86940F08050E8614FF001084B
:100DE000E86900F0805000900098DFF8F092D9F8A0
:100DF0000000C0051FD4D9F8000040F48070C9F885
:100E00000000FFF725FD0746D9F80000C00512D401
:100E1000FFF71EFDC01B6528F6D386E00160FFF7D3
:100E200017FD0746686A8007CCD5FFF711FDC01B88
:100E30000328F7D379E0E068012808D008B9286AC8
:100E400009E00528286A06D140F004002862286AD3
:100E500040F0010005E0400840002862286A20F0C8
:100E60000400286241F28939E06858B1FFF7F0FCCC
:100E70000746286A800711D4FFF7EAFCC01B4845E3
:100E8000F7D352E0FFF7E4FC0746286A800705D550
:100E9000FFF7DEFCC01B4845F7D346E0B8F1000F72
:100EA00003D0E86920F08050E861E06900284DD067
:100EB000696801F00C01082939D002282AD100F014
:100EC00048F807462868800105D5FFF7C1FCC01B1C
:100ED0000328F7D329E0206AB0F5803F05D1686880
:100EE000A16820F40030084368606868216A20F433
:100EF00074100843616A08436860012000F02AF812
:100F000007462868800121D4FFF7A2FCC01B0328F4
:100F1000F7D30AE000F01DF807462868800115D5D0
:100F2000FFF796FCC01B0328F7D303200FE001282E
:100F30000AD06868226A00F48031914202BF00F44E
:100F40007010616A884201D0012000E00020BDE8F5
:100F5000F28300203066FFF77BBC2DE9F0410400EE
:100F6000884650D05E4E306800F00700404502D2FF
:100F700000F06CF847D12068534F810712D5400725
:100F800003D5786840F4E06078602078000703D5E6
:100F9000786840F4605078607868A16820F0F000CC
:100FA000084378602078C00725D56068012802D101
:100FB0003968890303E00228396802D1890102D423
:100FC00021E089071FD57968890840EA81007860A7
:100FD000FFF73EFC05467868616800F00C00B0EB56
:100FE000810F08D0FFF734FC401B41F28931884261
:100FF000F1D3032028E0306800F00700804504D2D8
:1010000000F024F801D001201EE02078400705D52B
:101010007868E16820F4E060084378602078000791
:1010200006D57868216920F4605040EAC1007860F4
:1010300000F01BF87A682B49C2F30312895CC840A0
:10104000224900F00DF80020BDE8F0813068C008AA
:1010500048EAC0003060306800F007004045704743
:1010600008602148006800F039BA204918480A6829
:1010700002F00C03082B00D0704710B50FF2780374
:10108000C2F38344D2031B5D09D509680FF27802CD
:10109000C1F340415843515CB0FBF1F010BD14481E
:1010A000584310BD0948114A006812681149C2F33B
:1010B000022206E005480D4A006812680D49C2F395
:1010C000C222895CC8407047001002400C0000201A
:1010D00000127A0000004242800442420070004048
:1010E00000200240401900080800002004100240BF
:1010F00000093D006C1900080203040506070809F1
:101100000A0B0C0D0E0F101001020000002200F05F
:1011100005BA00002DE9F84700220023654CDFF8EE
:101120009881DFF898914FF00F0A01E02560521C7A
:101130000E6836FA02F500F0B080012707FA02F5D2
:1011400005EA060EAE45F2D14F683FB3012F1AD023
:10115000022F1DD0032F2CD0112F16D0122F1AD0F2
:10116000574EB7421CBF574EB74217D0564EB742E4
:101170001CBF564EB74211D0554EB7421CBF554EFC
:10118000B7420BD016E0CB6814E0CB681B1D11E012
:10119000CB6808330EE0CB680C330BE08B680BB9DF
:1011A000042307E0012B19BF0823456108230561CB
:1011B00000E00023BEF1FF0F02D88446950004E052
:1011C000A2F1080500F1040CAD00DCF800600AFA99
:1011D00005F7BE4303FA05F53543CCF800504D68DA
:1011E000ED00A4D5D9F8005045F00105C9F800502C
:1011F0004FEA920CD9F8006006F001050095009DB9
:1012000058F82C60950005F00C050AFA05F7BE4366
:10121000314FB84208BF002718D0304FB84208BF3E
:10122000012713D02E4FB84208BF02270ED02D4FF2
:10123000B84208BF032709D02B4FB84208BF042784
:1012400004D02A4FB8420CBF0527062707FA05F538
:10125000354348F82C506FEA0E064D68ED02A5683C
:101260004CBF4EEA05053540A5604D68AD02E56806
:101270004CBF4EEA05053540E5604D68AD03656835
:101280004CBF4EEA0505354065604D68ED032568A5
:101290004CBF4EEA0505354048E7BDE8F187806858
:1012A000084018BF0120C0B2704702B909040161AB
:1012B000704700000004014008000140181002407F
:1012C0000000111000001210000021100000221078
:1012D000000031100000321000080140000C0140F5
:1012E000001001400014014000180140001C0140A2
:1012F00080B50748016841F010010160032000F04B
:1013000016F80F2000F0EAF8FFF746FA002002BDB9
:10131000002002400901020002D42948815470478C
:10132000284802F00F02104400F8041C70472649B8
:101330000A684FF6FF0300021A4000F4E060104311
:10134000224A10430860704738B51F4B1B68C3F32F
:101350000223C3F10704052C28BF04241D1D072DFB
:1013600034BF0023DB1E012505FA04F4641E21406E
:10137000994005FA03F35B1E1A401143BDE834405F
:10138000C8E7002807D4012100F01F029140104A4D
:10139000400942F82010704710B5401EB0F1807F20
:1013A00001D3012010BD0B4C60600F214FF0FF30C6
:1013B000FFF7B0FF0020A06007202060002010BDD4
:1013C00000E400E018ED00E00CED00E00000FA059C
:1013D00000E100E010E000E070B504460D46104862
:1013E00000F0B5F8064644B12946204600F0B0F8B2
:1013F0000444207830B9306070BD3468002CF3D1DB
:10140000002070BD2946204600F0B4F82044017841
:1014100011B1002100F8011B3060204670BD00BFF3
:101420001000002001B58B0718D1121F21D351F8ED
:10143000043BA3F1013C2CEA030C1CF0803C04BFEC
:1014400040F8043BF1E79CFA8CFCBCFA8CF1C1F14A
:1014500018018B40CB4040F8043B13E0042A09D329
:1014600011F8013B521E00F8013B5BB18B07F7D12D
:10147000DBE7121D5AB111F8013B521E00F8013B87
:1014800003B1F8D111001CBF002200F085F801BDA6
:10149000820707D010F8012B11F8013BBAB19A422C
:1014A000F6D014E002680B689A42A2F1013301BF42
:1014B000934313F0803F50F8042F51F8043FF3D0CA
:1014C00010F8012B11F8013B0AB19A42F8D0D01A5A
:1014D00070470A22002100F033B9000038B50D4DE5
:1014E000297804464FF47A70B0FBF1F00A49096894
:1014F000B1FBF0F0FFF750FF50B9102C08D20022DA
:1015000021464FF0FF30FFF71FFFAC60002032BDD7
:10151000012032BD000000200C00002000B500BFFB
:10152000130096469446103928BFA0E80C50FAD80C
:101530005FEA417C28BF0CC048BF40F8042BC907B4
:1015400028BF20F8022B48BF00F8012B00BD7047D0
:1015500070B4024604E014F8016BB34204D1521C8B
:1015600013781C0003D00C462578002DF3D170BCF5
:10157000101A704770B4024600E0521C13781C0029
:1015800007D00C462578002DF7D014F8016BB34234
:10159000F8D170BC101A7047401810F0030308D03F
:1015A000C91A1FD3DB0748BF00F8012D28BF20F858
:1015B000022D130030B414461546103928BF20E917
:1015C0003C00FAD8490728BF20E90C0048BF40F882
:1015D000042D890028BF20F8022D48BF00F8012DF6
:1015E00030BC7047C91818BF00F8012DCB0728BFC1
:1015F00000F8012D704700002DE9F04F85B004463A
:101600001E000D4690461CBF00203060A14601E040
:1016100009F1010999F80000A0F109010529F7D3A2
:101620002028F5D02D2816BF2B2819F8017B2B2751
:10163000B8F1000F57D4B8F1010F54D0B8F1250F0D
:1016400051DAB8F1010F0DDBB8F1100F04BF99F8B2
:101650000000302802BF99F8010040F020007828EF
:1016600014D10EE099F80000302818BF4FF00A0896
:101670000CD199F8010040F02000782804D14FF0F7
:10168000100809F1020901E04FF00808CDF81090A8
:1016900001E009F1010999F800003028F9D00FF2B2
:1016A000A40B4FF0000ACDF80C908DF808B00AE0BA
:1016B0009DF80810CDF804A0401AC0B2009008FBB5
:1016C0000A0A09F1010999F80010A1F141001A284C
:1016D00038BF20314246584600F05CF80028E7D178
:1016E0000498484503D105B12C60002025E00FF295
:1016F0007C01039811F80810A9EB0000401A14D4DB
:10170000012808DA0098BAEB000004D30199B0FB75
:10171000F8F0884209D000F069F8222101600EB18A
:10172000012030604FF0FF3A03E02D2F08BFCAF1CF
:10173000000A0DB1C5F80090504605B0BDE8F08F25
:10174000002359E730313233343536373839616266
:10175000636465666768696A6B6C6D6E6F707172E1
:10176000737475767778797A00000000000021158F
:10177000110E0D0C0B0B0A0A0909090909080808C2
:1017800008080808070707070707070707070707E5
:1017900007000000C9B2830706D0521E22D310F8FA
:1017A000013B9942F7D11FE0083A13D302F104023A
:1017B00041EA012141EA014150F8043B121F21BFD7
:1017C0004B40A3F1013C2CEA030C1CF0803FF3D00A
:1017D000C9B2001F083210F8013B521E28BF91EA1F
:1017E000030FF8D818BF0120401E70470148FFF7CB
:1017F000AEBE00001400002019E050F8041BCB0717
:1018000044BFA9F101035918121F0023042A41F80B
:10181000043BF9D25FEA827C0B4604D54FF0000C02
:10182000A1F800C09B1CD10744BF0021197050F8DB
:10183000042B002AE1D1704710B450F8041B79B191
:101840000268436802440830DC0744BFA9F1010480
:10185000E31852F8044B43F8044B091FF9D1ECE7A5
:1018600010BC704710B5074979441831064C7C44C8
:10187000163404E00A68081D114488470146A14255
:10188000F8D110BD08000000280000006DFFFFFF28
:101890005C00000018040020000000009DFFFFFF16
:1018A0001800000080000000000000200000000080
:1018B000FEE7FEE7FEE7FEE7FEE77047704770478A
:1018C00000F006B80148FEF7F2BC00002C0400202E
:1018D00002484168027851184160704700000020BA
:1018E00000F00BF8002801D0FFF7BCFF0020C04635
:1018F000C046FFF769F800F002F80120704700F0D9
:1019000001B800000746384600F002F8FBE7000087
:1019100080B5C046C046024A11001820ABBEFBE7A6
:10192000260002000100000000000000100000007E
:1019300000127A0000000000000000007047000064
:10194000000000000000000001020304060708096F
:1019500001488047014800473D1900086119000807
:10196000C046C046C046C046FFF7BAFF00000000B0
:1019700001020304FFF7FEBFFFF7FEBFFFF7FEBF44
:10198000FFF7FEBFFFF7FEBFFFF7FEBFFFF7FEBF8B
:10199000FFF7FEBFFFF7FEBFFFF7FEBFFFF7FEBF7B
:1019A000FFF7FEBFFFF7FEBFFFF7FEBFFFF7FEBF6B
:1019B000FFF7FEBFFFF7FEBFFFF7FEBFFFF7FEBF5B
:1019C000FFF7FEBFFFF7FEBFFFF7FEBFFFF7FEBF4B
:1019D000FFF7FEBFFFF7FEBFFFF7FEBFFFF7FEBF3B
:1019E000FFF7FEBFFFF7FEBFFFF7FEBFFFF7FEBF2B
:1019F000FFF7FEBFFFF7FEBFFFF7FEBFFFF7FEBF1B
:101A0000FFF7FEBFFFF7FEBFFFF7FEBFFFF7FEBF0A
:101A1000FFF7FEBFFFF7FEBFFFF7FEBFFFF7FEBFFA
:101A2000FFF7FEBFFFF7FEBFFFF7FEBFFFF7FEBFEA
:101A3000FFF7FEBFFFF7FEBFFFF7FEBFFFF7FEBFDA
:101A4000FFF7FEBFFFF7FEBFFFF7FEBFFFF7FEBFCA
:101A5000FFF7FEBFFFF7FEBFFFF7FEBFFFF7FEBFBA
:040000050800196175
:00000001FF
